{
    "contractName": "Test",
    "abi": [
        {
            "inputs": [
                {
                    "internalType": "address",
                    "name": "_owner",
                    "type": "address"
                },
                {
                    "internalType": "string",
                    "name": "_title",
                    "type": "string"
                },
                {
                    "internalType": "string",
                    "name": "_description",
                    "type": "string"
                },
                {
                    "internalType": "uint256",
                    "name": "_amountNeeded",
                    "type": "uint256"
                },
                {
                    "internalType": "uint256",
                    "name": "_deadline",
                    "type": "uint256"
                }
            ],
            "stateMutability": "nonpayable",
            "type": "constructor"
        },
        {
            "anonymous": false,
            "inputs": [
                {
                    "indexed": true,
                    "internalType": "address",
                    "name": "_donor",
                    "type": "address"
                }
            ],
            "name": "DonationReceived",
            "type": "event"
        },
        {
            "anonymous": false,
            "inputs": [
                {
                    "indexed": true,
                    "internalType": "address",
                    "name": "_owner",
                    "type": "address"
                }
            ],
            "name": "FundsSent",
            "type": "event"
        },
        {
            "inputs": [],
            "name": "amountCollected",
            "outputs": [
                {
                    "internalType": "uint256",
                    "name": "",
                    "type": "uint256"
                }
            ],
            "stateMutability": "view",
            "type": "function"
        },
        {
            "inputs": [],
            "name": "amountNeeded",
            "outputs": [
                {
                    "internalType": "uint256",
                    "name": "",
                    "type": "uint256"
                }
            ],
            "stateMutability": "view",
            "type": "function"
        },
        {
            "inputs": [],
            "name": "deadline",
            "outputs": [
                {
                    "internalType": "uint256",
                    "name": "",
                    "type": "uint256"
                }
            ],
            "stateMutability": "view",
            "type": "function"
        },
        {
            "inputs": [],
            "name": "description",
            "outputs": [
                {
                    "internalType": "string",
                    "name": "",
                    "type": "string"
                }
            ],
            "stateMutability": "view",
            "type": "function"
        },
        {
            "inputs": [],
            "name": "getDonors",
            "outputs": [
                {
                    "internalType": "address[]",
                    "name": "",
                    "type": "address[]"
                },
                {
                    "internalType": "uint256[]",
                    "name": "",
                    "type": "uint256[]"
                }
            ],
            "stateMutability": "view",
            "type": "function"
        },
        {
            "inputs": [],
            "name": "title",
            "outputs": [
                {
                    "internalType": "string",
                    "name": "",
                    "type": "string"
                }
            ],
            "stateMutability": "view",
            "type": "function"
        },
        {
            "stateMutability": "payable",
            "type": "receive"
        }
    ],
    "bytecode": "60806040523480156200001157600080fd5b5060405162000ad238038062000ad28339810160408190526200003491620001b7565b4281116200009d5760405162461bcd60e51b815260206004820152602c60248201527f54686520646561646c696e652073686f756c642062652061206461746520696e60448201526b103a343290333aba3ab9329760a11b606482015260840160405180910390fd5b600080546001600160a01b0319166001600160a01b0387161790556004620000c68582620002e3565b506005620000d58482620002e3565b5060089190915560065550506000600781905560035550620003af565b634e487b7160e01b600052604160045260246000fd5b600082601f8301126200011a57600080fd5b81516001600160401b0380821115620001375762000137620000f2565b604051601f8301601f19908116603f01168101908282118183101715620001625762000162620000f2565b816040528381526020925086838588010111156200017f57600080fd5b600091505b83821015620001a3578582018301518183018401529082019062000184565b600093810190920192909252949350505050565b600080600080600060a08688031215620001d057600080fd5b85516001600160a01b0381168114620001e857600080fd5b60208701519095506001600160401b03808211156200020657600080fd5b6200021489838a0162000108565b955060408801519150808211156200022b57600080fd5b506200023a8882890162000108565b606088015160809098015196999598509695949350505050565b600181811c908216806200026957607f821691505b6020821081036200028a57634e487b7160e01b600052602260045260246000fd5b50919050565b601f821115620002de57600081815260208120601f850160051c81016020861015620002b95750805b601f850160051c820191505b81811015620002da57828155600101620002c5565b5050505b505050565b81516001600160401b03811115620002ff57620002ff620000f2565b620003178162000310845462000254565b8462000290565b602080601f8311600181146200034f5760008415620003365750858301515b600019600386901b1c1916600185901b178555620002da565b600085815260208120601f198616915b8281101562000380578886015182559484019460019091019084016200035f565b50858210156200039f5787850151600019600388901b60f8161c191681555b5050505050600190811b01905550565b61071380620003bf6000396000f3fe6080604052600436106100595760003560e01c80631ba11f44146101cf57806329dcb0cf146101f8578063332f7acf1461020e5780634a79d50c146102245780637284e4161461024657806396f300d41461025b57600080fd5b366101ca57346008548111156100ab5760405162461bcd60e51b8152602060048201526012602482015271139bdd0818481d985b1a5908185b5bdd5b9d60721b60448201526064015b60405180910390fd5b6001805480820182557fb10e2d527612073b26eecdfd717e6a320cf44b4afac2b0732d9fcbe2b7fa0cf60180546001600160a01b031916331790556002805491820181556000908152347f405787fa12a823e0f2b7631cc41b3ba8828b3321ca811111fa75cd3aa3bb5ace909201829055600380549161012a83610576565b91905055508060076000828254610141919061058f565b92505081905550806008600082825461015a91906105a8565b909155505060065442111561018957600354156101895761017961027e565b6000600881905560078190556003555b60085460000361019d5761019b610372565b005b60405133907f83967765d3f3ddb05d13a9882ea460da67e724e6800ed1e257a3b2335f24227290600090a2005b600080fd5b3480156101db57600080fd5b506101e560085481565b6040519081526020015b60405180910390f35b34801561020457600080fd5b506101e560065481565b34801561021a57600080fd5b506101e560075481565b34801561023057600080fd5b50610239610408565b6040516101ef91906105bb565b34801561025257600080fd5b50610239610496565b34801561026757600080fd5b506102706104a3565b6040516101ef929190610609565b60005b60035481101561036f576000600182815481106102a0576102a061068d565b600091825260209091200154600280546001600160a01b0390921691849081106102cc576102cc61068d565b6000918252602082200154604051909181818185875af1925050503d8060008114610313576040519150601f19603f3d011682016040523d82523d6000602084013e610318565b606091505b505090508061035c5760405162461bcd60e51b815260206004820152601060248201526f11985a5b1959081d1bc81c99599d5b9960821b60448201526064016100a2565b508061036781610576565b915050610281565b50565b600080546007546040516001600160a01b03909216918381818185875af1925050503d80600081146103c0576040519150601f19603f3d011682016040523d82523d6000602084013e6103c5565b606091505b50509050801561036f57600080546040516001600160a01b03909116917f5cd18fd76f4ba38c24b9b561729ad086d7edcc025c1bedfb5cd2e92db5173ba891a250565b60048054610415906106a3565b80601f0160208091040260200160405190810160405280929190818152602001828054610441906106a3565b801561048e5780601f106104635761010080835404028352916020019161048e565b820191906000526020600020905b81548152906001019060200180831161047157829003601f168201915b505050505081565b60058054610415906106a3565b60608060016002818054806020026020016040519081016040528092919081815260200182805480156104ff57602002820191906000526020600020905b81546001600160a01b031681526001909101906020018083116104e1575b505050505091508080548060200260200160405190810160405280929190818152602001828054801561055157602002820191906000526020600020905b81548152602001906001019080831161053d575b50505050509050915091509091565b634e487b7160e01b600052601160045260246000fd5b60006001820161058857610588610560565b5060010190565b808201808211156105a2576105a2610560565b92915050565b818103818111156105a2576105a2610560565b600060208083528351808285015260005b818110156105e8578581018301518582016040015282016105cc565b506000604082860101526040601f19601f8301168501019250505092915050565b604080825283519082018190526000906020906060840190828701845b8281101561064b5781516001600160a01b031684529284019290840190600101610626565b5050508381038285015284518082528583019183019060005b8181101561068057835183529284019291840191600101610664565b5090979650505050505050565b634e487b7160e01b600052603260045260246000fd5b600181811c908216806106b757607f821691505b6020821081036106d757634e487b7160e01b600052602260045260246000fd5b5091905056fea26469706673582212204d615ecb2d9b3e6d083de2aae628dfcb9c26e267dfdb557148244bfa80946b6764736f6c63430008130033",
    "sourcePath": "/Users/zwezeya/Development/my-projects/CareWallet/src/backend/Test.sol",
    "compiler": {
        "name": "solc",
        "version": "0.8.19+commit.7dd6d404"
    },
    "functionHashes": {
        "amountCollected()": "332f7acf",
        "amountNeeded()": "1ba11f44",
        "deadline()": "29dcb0cf",
        "description()": "7284e416",
        "getDonors()": "96f300d4",
        "title()": "4a79d50c"
    },
    "gasEstimates": {
        "creation": {
            "codeDepositCost": "362200",
            "executionCost": "infinite",
            "totalCost": "infinite"
        },
        "external": {
            "amountCollected()": "2306",
            "amountNeeded()": "2262",
            "deadline()": "2284",
            "description()": "infinite",
            "getDonors()": "infinite",
            "title()": "infinite"
        },
        "internal": {
            "returnFunds()": "infinite",
            "sendFunds()": "infinite"
        }
    }
}